{
  "contractName": "DappToken",
  "abi": [
    {
      "inputs": [
        {
          "internalType": "uint256",
          "name": "_initialSupply",
          "type": "uint256"
        }
      ],
      "payable": false,
      "stateMutability": "nonpayable",
      "type": "constructor"
    },
    {
      "constant": true,
      "inputs": [],
      "name": "totalSupply",
      "outputs": [
        {
          "internalType": "uint256",
          "name": "",
          "type": "uint256"
        }
      ],
      "payable": false,
      "stateMutability": "view",
      "type": "function"
    }
  ],
  "bytecode": "0x608060405234801561001057600080fd5b506040516100de3803806100de8339818101604052602081101561003357600080fd5b8101908080519060200190929190505050806000819055505060848061005a6000396000f3fe6080604052348015600f57600080fd5b506004361060285760003560e01c806318160ddd14602d575b600080fd5b60336049565b6040518082815260200191505060405180910390f35b6000548156fea265627a7a723158208a2490b88e722a1801b1ffcbe99ed098a97b89c06de4a904c058ec43b6b9333e64736f6c63430005100032",
  "source": "pragma solidity ^0.5.16;\n\ncontract DappToken {\n  //constructor\n  //set the total number of tokens\n  // read the total number of tokens\n  uint256 public totalSupply;\n\n  constructor (uint256 _initialSupply) public {\n    totalSupply = _initialSupply;\n  }\n\n}\n\n\n",
  "sourcePath": "/Users/jonathanng/code/Jonathannzy/token_sale/contracts/DappToken.sol",
  "compiler": {
    "name": "solc",
    "version": "0.5.16+commit.9c3226ce.Emscripten.clang"
  },
  "schemaVersion": "3.2.3",
  "updatedAt": "2020-09-07T19:23:49.682Z",
  "networkType": "ethereum",
  "devdoc": {
    "methods": {}
  },
  "userdoc": {
    "methods": {}
  }
}